:020000040800F2
:10000000D8E3002045020008B13E00080939000885
:10001000AD3E00084D280008DB7400080000000019
:1000200000000000000000000000000085650008DE
:10003000793400080000000029440008D96600084F
:100040005F0200085F0200085F02000879470008AD
:100050005F0200085F0200087D3400085F020008AC
:100060005F0200085F0200085F0200085F020008EC
:100070005F0200085F0200085F0200085F020008DC
:100080005F0200085F0200085F0200085F020008CC
:100090005F0200085F0200085F0200085F020008BC
:1000A0005F0200085F0200085F0200085F020008AC
:1000B0003D670008BD670008456800085F0200084A
:1000C0005F0200085F0200085F0200085F0200088C
:1000D0005F020008617200085F0200085F0200080A
:1000E0005F0200085F0200085F0200085F0200086C
:1000F0005F0200085F0200085F0200085F0200085C
:100100005F02000815490008156F00085F0200082B
:100110005F0200085F0200085F0200085F0200083B
:100120005F0200085F0200085F0200085F0200082B
:1001300000F002F800F076F80AA090E8000C824483
:100140008344AAF10107DA4501D100F06BF8AFF260
:10015000090EBAE80F0013F0010F18BFFB1A43F0A5
:1001600001031847005E0100205E01000A444FF0C1
:10017000000C10F8013B13F0070408BF10F8014B06
:100180001D1108BF10F8015B641E05D010F8016B4B
:10019000641E01F8016BF9D113F0080F1EBF10F8AF
:1001A000014BAD1C0C1B09D16D1E58BF01F801CBD2
:1001B000FAD505E014F8016B01F8016B6D1EF9D555
:1001C0009142D6D37047000000230024002500266A
:1001D000103A28BF78C1FBD8520728BF30C148BFAA
:1001E0000B607047662914F05E85642900F0E0809A
:1001F000632900F08686732900F08B860020704703
:100200001FB500F095FF04000020002113F020FB33
:10021000401C60600020002113F030FBE0601FBD37
:1002200010B510BD01F0DDF81146FFF7E9FF0EF043
:1002300047F901F04DFB03B4FFF7F2FF03BC07F0F1
:10024000F1FC00000948804709480047FEE7FEE747
:10025000FEE7FEE7FEE7FEE7FEE7FEE7FEE7FEE776
:1002600004480549054A064B70470000DD66000852
:1002700031010008D8D10020D8E30020D8D30020D5
:10028000D8D30020704710B54C1084EA530404D52D
:100290004042C1F1000138BF491E1B4204D5524201
:1002A000C3F1000338BF5B1E00F01CFB14F0804F4D
:1002B00004D04042C1F1000138BF491E14F0004F84
:1002C00004D05242C3F1000338BF5B1E10BD0000D2
:1002D0000FB4044910B503AA029800F01FFE10BC29
:1002E0005DF814FB580A00200FB41CB5074B06AA92
:1002F0007B4469460090059800F0E1FD00206946C6
:1003000000F0F0FD1CBC5DF814FB0000F10B0000D8
:1003100070B5044685690068C10601D5302600E045
:100320002026C00707D070BDD4E901213046904790
:10033000206A401C20626D1EF6D570BD70B5044663
:1003400085690078C00707D170BDD4E9012120205C
:100350009047206A401C20626D1EF6D570BD70B5B6
:100360000C460546012A05D02878800600D5EA69A2
:10037000002302E0012305E05B1C934202D2E05C13
:100380000028F9D1A869E618C01AA861286A18449B
:1003900028622846FFF7BCFF04E0D5E9012114F8E4
:1003A000010B9047B442F8D32846FFF7C7FF70BD52
:1003B0002DE9F0410646002410687529314616A53E
:1003C00010D0AFF30080002802DA404213A507E006
:1003D00031688A0701D512A502E0490704D511A5A5
:1003E000012401E0AFF3008000210A2206F1240776
:1003F00009E0B0FBF2FCB0FBF2F302FB1C00303072
:1004000078541846491C0028F3D123462A46304622
:10041000BDE8F04100F0E8BA000000002D00000047
:100420002B000000200000002DE9F0474FF0000AEB
:1004300089460446C0F820A02046E1688847002885
:1004400076D0252806D0D4E901219047206A401CA7
:100450002062F1E7E168204600268847C4F81CA026
:1004600005460027C4F818A02A2D09D0284607F011
:10047000D2FB38B304EB8708303DC8F8185019E0B8
:1004800059F8041B204604EB87029161E168884714
:10049000012F054618D1E069002820DA26F0200651
:1004A0001DE0D8F8180000EB800005EB4000303864
:1004B000C8F818002046E1688847054607F0ABFBFE
:1004C0000028EED1012F0AD02E2D08D12046E16858
:1004D00088477F1C0546022F46F02006C4DBA06932
:1004E000002803DA404246F00106A061F00701D07F
:1004F00026F010066C2D0AD0682D08D04C2D39D06E
:100500006A2D35D0742D35D07A2D33D016E0E168C0
:100510002F4620468847B84205460AD16C2F27D07F
:100520004FF48060E168064320468847054605E0B1
:1005300027E06C2F1AD04FF4807006430DB3A5F15D
:100540004100192802D8203546F400664A4629465B
:10055000204626604E46FFF745FE80B101280BD0AD
:10056000F61D26F0070000F1080965E74020E4E7E2
:100570008020D7E70020D5E706F104095CE728468C
:1005800061E7206ABDE8F0872DE9F04791460F4604
:1005900080460446002614F8015B2DB100F096F960
:1005A0000068405DC007F6D12B2D02D02D2D18D04C
:1005B000641E4A463946204600F0C2FC27B139681D
:1005C000A14201D1C7F800804FF0020471050BD59C
:1005D0004042002803DD00F081F90460A007BDE877
:1005E000F08746F48066E4E70028F8DA00F076F950
:1005F00004606FF00040F2E7401ECAB210F8011F1D
:100600008A4202D00029F9D10020704730B5054652
:100610000B462A4613F8014B12F8010B08B1A04211
:10062000F8D01CB1002802D06D1CF1E7284630BD7F
:1006300040EA0103024630B59B0710D14FF0013468
:1006400000E008C208C91D1B9D4315EAC41FF8D06D
:1006500013F0FF0102F8011B0DD01B0AF8E711F897
:10066000013B002B02F8013B05D011F8013B002BA8
:1006700002F8013BF3D130BD10B5431C02E010F885
:10068000011B71B18107FAD14FF0013202C88C1AF7
:100690008C4314EAC211F9D0C01A0A0603D0C01E56
:1006A00010BDC01A10BD0A0401D0801E10BD090281
:1006B000FCD0401E10BD40EA010370B59B072ED14F
:1006C0004FF00136042A2AD308C810C99D1B9D4348
:1006D000121F15EAC61517D0D8B2E1B2401A50EA77
:1006E000056110D198B2A1B2401A50EA05410AD171
:1006F00023F07F4024F07F41401A50EA052102D1C7
:10070000180EA0EB146070BDA342DBD018BA21BA5A
:10071000884201D9012070BD4FF0FF3070BD0AB989
:10072000002070BD10F8013B11F8014B63B1A342EA
:100730000AD1521E08D010F8013B11F8014B1BB131
:10074000A34201D1521EEDD1181B70BD421E12F8FA
:10075000013F002BFBD111F8013B002B02F8013BBC
:10076000F9D17047032A40F2308010F0030C00F0FA
:10077000158011F8013BBCF1020F624498BF11F8DB
:1007800001CB00F8013B38BF11F8013BA2F1040294
:1007900098BF00F801CB38BF00F8013B11F003030C
:1007A00000F06E84083AC0F0088051F8043B083A23
:1007B00051F804CBA0E80810F5E7121D5CBF51F812
:1007C000043B40F8043BAFF30080D20724BF11F88C
:1007D000013B11F801CB48BF11F8012B24BF00F8F1
:1007E000013B00F801CB48BF00F8012B704710B562
:1007F000044610F0030F08BF11F0030F40F01580FE
:100800004FF0013E121FC0F20E8051F8043BA3EBE3
:100810000E0C2CEA030C1CEACE1C08BF40F8043B6B
:10082000F0D0A1F1040102F10402521E08DB11F81C
:10083000013B002B00F8013BF7D1114600F052FCC0
:10084000204610BD4FF0013C50F8042B51F8043BFA
:100850009A4221D1A2EB0C03934313EACC1317D194
:1008600050F8042B51F8043B9A4215D1A2EB0C032B
:10087000934313EACC130BD150F8042B51F8043BEB
:100880009A4209D1A2EB0C03934313EACC13DBD0B9
:100890004FF00000704700BFD01A01BAB1FA81F1E1
:1008A00001F0180122FA01F0CB40C1F12001DBB2C6
:1008B000C0B2C01A2CFA01F3D11A914311EAC31144
:1008C000E6D17047704770477047704710B500F029
:1008D0002FFC001D10BD00BF792F0100004870479C
:1008E00078D1002053EA020C00F069802DE9F04B2A
:1008F0004FF00006002B1FBFB3FA83F503FA05F48F
:1009000024FA05F65E4012BF1643B2FA82F502FAE7
:1009100005F4C5F120051EBF22FA05FC44EA0C04CB
:10092000203556EA044C4FEA144418BF641C4FF0BB
:1009300000084FF00009904271EB030C39D30029F5
:1009400019BFB1FA81F701FA07F6B0FA80F700FA99
:1009500007F6C7F120071EBF20FA07FC46EA0C067F
:100960002037B6FBF4FCA7EB0507103F07F01F0B81
:10097000CBF120060CFA0BFB2CFA06F644BFB3466B
:100980000026202FA4BF5E464FF0000B5BEA060C4A
:1009900008BF4FF0010B19EB0B09ABFB027C48EBD6
:1009A0000608C01B06FB02CC0BFB03CC71EB0C0151
:1009B000C1E70B46024641464846BDE8F08B13B5F9
:1009C0004FF000004FF00001AFF30080BDE81C4085
:1009D000704710B5FFF782FF006810BD10B50446E0
:1009E000FFF77CFF046010BD2DE9F0470D469946E6
:1009F0009246044600F124080168880604D5E0699F
:100A000021F01001216000E00120A84201DD471B18
:100A100000E00027A1697A1902EB0900081AA06119
:100A20002078C00602D42046FFF772FC002608E0BA
:100A3000D4E901211AF806009047206A401C761C70
:100A400020624E45F4DB2078C0060AD52046FFF729
:100A50005FFC06E0D4E9012130209047206A401C69
:100A60002062381EA7F10107F4DC07E0D4E9012178
:100A700018F805009047206A401C2062281EA5F146
:100A80000105F3DC2046FFF759FC2078000602D56B
:100A90000220BDE8F0870120FBE770472DE9FF4FFA
:100AA0000C461E464FF0FF378BB0D2E90001DDF84F
:100AB00060800A908A46C1F30A5505B93D46002177
:100AC00008464FF00000BAF1000F00F4400005DACC
:100AD00000EB80004FF4400101EA50004FEA9059CA
:100AE000B9F1010F00DDB9460A9850EA4A000ED06C
:100AF00044F61050A5F2FF3545432F14B8F1000F0E
:100B00001ED07542291E1EDDC9F100021CE0B8F19D
:100B1000010F4FF0000001D0302103E0F24305E067
:100B20002154401CB042FBDB3046002200212154FE
:100B30000B99C1F80880C1E900200FB0BDE8F08F23
:100B4000BD1B6D1CDEE74A4600DA694206A800F0CC
:100B5000AFFB06AB93E8070003AB83E80700504602
:100B60000A9901F0FCF88DE80700A0F500501F3845
:100B700000900398002D09DD42F21F014A46084407
:100B800003A90390684601F086FB08E0A0F5005039
:100B90004A461F3803A90390684601F0A4FB8DE87C
:100BA00007000004000C03D04FF0FF30410800E0C4
:100BB0001046B8F1000F03D00022009215461EE047
:100BC000751E05D400F0B8FA303262556D1EF9D5A5
:100BD000B3460122084302D000227F1C04E02078A3
:100BE000302801D100227F1E002A099786D01DE0FF
:100BF000112D07DA00F0A0FA303262556D1C50EA70
:100C00000102F5D1084302D00098C8B10EE00021DE
:100C1000681E05E0235C625C63542254401E491C3C
:100C20008142F7DBAB46A81B401E0990002004F868
:100C30000B000B98099AC0F80880C0E9002B7CE7EC
:100C400011264FF0000859E72DE9F04F8846044679
:100C5000D21D22F0070191B0D1E90001CDE90A01CE
:100C600006F03DFC02460B98C00F01D02D2007E096
:100C70002068810701D52B2002E0202101EAC00075
:100C8000032A099001D0072A05DB03464146204686
:100C900000F0A0FA0BE12078800601D5E06900E0C1
:100CA0000620B8F1650F814606D0B8F1660F18D05E
:100CB000B8F1670F70D131E00020B9F1110F009049
:100CC00001DB112301E009F101030AAA01A90CA823
:100CD000FFF7E4FEDDE90C70002609F1010583460B
:100CE00047E001204B4600904FF000470AAA01A9B7
:100CF0000CA8FFF7D3FEDDE90DB00C995D46002688
:100D000010B909F101000D18B9EB050003D4C0F1C9
:100D1000FF3609F10105A5EB09002BE0B9F1010F40
:100D200001DA4FF001090020B9F1110F0090484697
:100D300001DD112300E003460AAA01A90CA8FFF770
:100D4000ADFEDDE90C704D46002683462078000795
:100D50000AD4AB4500DA5D4601A8012D04DD411936
:100D600011F8011C302907D04F4502DA17F1040FA2
:100D700004DA012082460FE06D1EEEE7002F02DC50
:100D8000ED1B3E4403E0781CA84200DD7D1CB81B2F
:100D900000F1010A4FF000472078000703D4AA456C
:100DA00001DB4FF0FF3A0021B7F1004F0DF143088E
:100DB0008DF8431024D002202B23002F01DA7F422C
:100DC0002D230A21021EA0F1010000DC5FB197FB78
:100DD000F1FC97FBF1F201FB1C7C17460CF1300C87
:100DE00008F801CDEEE7A8F101000370218809059C
:100DF00001D5452100E06521A0F1010800F8011CA2
:100E000009980FA9A1EB0807FF1D00B101204119A6
:100E100001EBEA70A1693844081A401EA0612078ED
:100E2000C00602D42046FFF773FA099828B1D4E926
:100E300001219047206A401C20622078C00622D5FC
:100E40002046FFF765FA1EE0002E04DBB34502DD05
:100E500001A8805D00E03020D4E901219047206A9C
:100E6000401C2062761CAAF101005FEA000A0AD148
:100E700000F05EF9C0680168405CD4E90121904748
:100E8000206A401C2062281EA5F10105DCDC07E079
:100E9000D4E9012118F8010B9047206A401C206218
:100EA000381EA7F10107F3DC2046FFF747FA0320BD
:100EB00011B043E601694A1C02610878704700B529
:100EC0008FB0CDE901310021059105497944CDE983
:100ED000031011466846FFF7A7FA0FB000BD0000E7
:100EE000E5FFFFFF0A6802F8010B0A60704710B5C2
:100EF000436913B1AFF3008001E0FFF730FA01203E
:100F000010BD127800F124010A7000224A700122FB
:100F1000EDE711684FF0FF32E9E70000074B70B5CD
:100F20000D467B44FFF7CBFF0446284600F02EFA1F
:100F300010B14FF0FF3070BD204670BD7F9E0000A5
:100F40002DE9F05F824615468B4600270AF1010421
:100F5000B9460078302801D09DB113E014F8010B98
:100F60000127782803D0582801D045B10AE00DB1F7
:100F7000102D07D1002714F8010B102502E00825D9
:100F800000E00A250026B0460EE005FB080005FB40
:100F900006F101271FFA80F801EB1046B6F5803FF5
:100FA00000D3B94614F8010B294600F053F9002884
:100FB000EBDABBF1000F05D00FB1641E00E0544620
:100FC000CBF80040B9F1000F06D0FFF787FC0221F3
:100FD0000160C81EBDE8F09F48EA0640FAE700003D
:100FE0000FB4002300B589B00CA900910B99CB6018
:100FF000204B7B440693204B7B44079304236FF0E4
:101000000042CDE901321D4A7A446B4608920246FD
:10101000002013F0AAFE09B05DF814FB70B5064677
:101020004FF0FF3015460C46324686B00091CDE9B0
:10103000010169460020049004A8FFF7D1FF034690
:101040000498211825B108B10A4600E022462A601A
:1010500000280DD0002B02DD0098884208D03246CF
:10106000081B69460094CDE9010404A8FFF7B8FF06
:1010700006B070BD7B02000093020000B7010000C3
:1010800010B5203AC0F00B80B1E81850203AA0E823
:101090001850B1E81850A0E81850BFF4F5AF5FEA57
:1010A000027C24BFB1E81850A0E8185044BF18C90A
:1010B00018C0BDE810405FEA827C24BF51F8043BB1
:1010C00040F8043B08BF7047D20728BF31F8023B05
:1010D00048BF11F8012B28BF20F8023B48BF00F899
:1010E000012B70474FF000020429C0F0128010F06D
:1010F000030C00F05181CCF1040CBCF1020F18BFBD
:1011000000F8012BA8BF20F8022BA1EB0C0100F086
:1011100043B95FEAC17C24BF00F8012B00F8012B22
:1011200048BF00F8012B70470048704778D1002075
:101130000048704798D1002030B5B0F10A024FEA5C
:10114000900E71F100034EEA817EB0EB0E0061EB70
:1011500091014FEA101E4EEA017E10EB0E0041EBAA
:1011600011114FEA102E4EEA016E10EB0E0041EB0A
:1011700011214FEA104E4EEA014E10EB0E0041EBEA
:101180001141401841F100014FEAD00040EA41709E
:101190004FEAD10110EB80054FEA810444EA9074D4
:1011A00044EB01046D1944EB0404521BA3414FF0BE
:1011B000000348BF0A3200D530BD401C41F1000198
:1011C00030BD10B50446FFF781FB0068005D00F0FC
:1011D000010010BD2DE9F0411F46044603260168B9
:1011E000072A01F4006004DB08B116A505E016A586
:1011F00003E008B115A500E015A521F0100020605E
:10120000A069C01EA0610FB1401EA0612046FFF77B
:101210007FF84FB1D4E9012138469047206A401C3D
:101220002062C01C206206E0206AFAE7D4E90121AE
:1012300015F8010B9047761EF8D22046FFF77EF88E
:10124000BDE8F0814E414E006E616E00494E460091
:10125000696E66003A2800D2303820F02002412A18
:1012600001D3A2F13700884201D34FF0FF3070471D
:10127000426842B1016811F8013B23B1521EC0E936
:101280000012184670470121C160881E70474268ED
:101290005AB1C368016843B983688B4205D0491EBF
:1012A000521CC0E90012002070474FF0FF30704719
:1012B0002DE9F047814616468AB0334878440DC878
:1012C0008DE80D0030487844801C03AC0DC884E8DC
:1012D0000D0041F69B300844372190FBF1F290FB62
:1012E000F1F5A5F1800501FB12041B3C02D5644217
:1012F000012000E00020DFF890A080460027FA449B
:10130000AAF1BE0A0DE0E00709D03246684607EBB5
:1013100047010AEB810100F0E6FF8DE80700641049
:101320007F1C002CEFD1184F7F44AC3F18E0E8073A
:1013300014D007EB04100DF1180A90E80E008AE8AB
:101340000E00C068F04201D198190890324606A9F3
:1013500003A800F0C8FF03AB83E807006D10641C0E
:10136000002DE4D132466946B8F1000F03A802D03F
:1013700000F091FF01E000F0B6FFC9E90001C9F8F3
:1013800008200AB0BDE8F087A4450100007B00F00A
:10139000800070474FF0000200B513469446964611
:1013A000203922BFA0E80C50A0E80C50B1F1200178
:1013B000BFF4F7AF090728BFA0E80C5048BF0CC026
:1013C0005DF804EB890028BF40F8042B08BF704784
:1013D00048BF20F8022B11F0804F18BF00F8012BF6
:1013E00070477546FFF7A0FEAE46050069465346B6
:1013F00020F00700854618B020B5FEF731FFBDE8A4
:1014000020404FF000064FF000074FF000084FF06B
:10141000000B21F00701AC46ACE8C009ACE8C009FC
:10142000ACE8C009ACE8C0098D4670472DE9FF4F14
:10143000064689B00878FF2806D0491C2D2805D01B
:1014400000244FF0000908E000200CE00124F8E738
:1014500009EB8903491C00EB43090878FF28F7D101
:1014600014B1C9F100008146107800252C46AA4627
:1014700029462D2801D02B2804D1521C2D2813D009
:10148000002082468B461078FF280FD04FF0000CCA
:101490000A21521CA5FB017804FB018105FB0C11FC
:1014A000C5194BEB0104EEE70120EAE700210846ED
:1014B0004FF00000BAF1000F02D000EB80004008AE
:1014C000C0F38158B8F1010F01DD4FF0FF380C98DF
:1014D00009EB000755EA040009D04FF0020917F59F
:1014E000FA7F0BDA4FEACA70C6E900B012E04FEAA1
:1014F000CA70C6E900B00DB0BDE8F08FB7F5FA7F4D
:101500000DDDF0487844D0E90010C6E9001040EA4B
:10151000CA707060FFF7E2F9C0F80090EBE7391E7F
:1015200002DAC8F1000200E0424600DA794206A879
:10153000FFF7BEFE06AB93E8070003AB83E80700A6
:1015400044F23E005BEA04010090584604D144F2A4
:101550001E012C465D460091210C0904014306D171
:101560000099240444EA15442D041039009104F034
:101570007F41014306D10099240244EA15642D02FB
:101580000839009104F07041014306D1009924010B
:1015900044EA15742D01091F009104F040410143F4
:1015A00006D10099A40044EA9574AD00891E00910B
:1015B00004F00041084304D100986D196441401EB5
:1015C000009042466846002FCDE9014503A902DD9F
:1015D00000F09DFE01E000F072FEBAF1000F04463B
:1015E0000D4601D084F0004440F2FF7724F0004023
:1015F000284303D0C4F30A50B84212D1FFF76EF962
:10160000C0F80090C4F30A50B8420AD1AE487844FA
:10161000D0E90010C6E9001004F0004108437060F2
:1016200069E7C6E9005466E72DE9FF4F1F464FF012
:10163000000A4FF0FF38454691B0D7E90146CDF892
:101640003CA0FFF775FDC0680168405C1090B96967
:1016500012986D1C8847396A814688470028F6D160
:10166000B9F1FF3F0AD0002E24F4D06411DDB9F1A6
:101670002B0F08D0B9F12D0F0BD102E0404615B069
:101680003AE744F48064B96912986D1C8847761E65
:101690008146600504A901D52D2000E02B20002EF5
:1016A00001F1010B0DF130088DF810003FDDB9F1AB
:1016B000690F08D0B9F1490F05D0B9F16E0F02D00A
:1016C000B9F14E0F1CD13B4601A8009580E85002AD
:1016D000DDE912126FF0020013F04BFBC11CCED1FA
:1016E0000EE0B96912986D1C884781461398761EE2
:1016F00044F4007405600F98401C002E0F9016DD16
:10170000B9F1300FEDD0B9F1780F02D0B9F1580F1F
:101710000DD10F9801280AD13B46CDE90054DDE9EF
:101720001212001F029613F022FBC11CA7D11099C0
:1017300089453ED144F0800406E01399681CAAF163
:10174000010A44F400740860B9696D1C1298761E91
:10175000884730288146F0D02BE01099894505D183
:10176000200603D4761E44F0800418E0484606F0B4
:1017700052FA08B3761E0DF123018B4544F4007430
:1017800008D2A9F130000BF8010B200607D5AAF109
:10179000010003E0200602D40AF101008246A00500
:1017A00002D51399681C0860B96912986D1C8847A6
:1017B0008146002ED1DC53E0002E51DDB9F1650FDA
:1017C00002D0B9F1450F4BD1A00549D5B9696D1CBF
:1017D0001298761E24F440748847002E81460CDD52
:1017E0002B2804D0B9F12D0F07D144F48074B969C6
:1017F00012986D1C8847761E8146E00501D52D2183
:1018000000E02B2108F8011BCDF8008021E0761EB6
:101810000DF13901884544F400740CD2A9F130006F
:1018200010F0FF0088F8000002D10099884509D91E
:1018300008F1010806E0E00501D5244801E042F284
:101840000F708246B96912986D1C884781461398BB
:101850000560002E04DD484606F0DDF90028D6D1EB
:10186000F96912988847FF2053468BF8000088F8E2
:10187000000000200A900B9004AA0CA90AA8FFF708
:10188000D5FDA00502D46FF00100F8E614F0240F96
:101890000AD0E00714D13868DDE90A12031D3B6065
:1018A0000068C0E900120BE00AA9684606F05CF97E
:1018B000E00705D13868009A011D396000680260B0
:1018C0002846DCE67C4A010072490100F1D8FFFF9E
:1018D00010B50446AFF300802046BDE81040FEF787
:1018E000AABC00002DE9FF4F1F464FF03C0987B00E
:1018F0004FF00042DDE9141001F10108DDF858A0B5
:1019000002EA4050039000200590834605460446B5
:101910000490B969461E08988847AAF1010A029006
:10192000BAF1000F3BDD02982E2815D01021FFF7E9
:1019300091FC00282EDB4FF0010B0599014317D0D5
:10194000B9F1000F0BDB4A46C11700F0F5F905436A
:101950000C43A9F1040905E0012004900BE008B153
:1019600045F0010501200590049820B9361D02E0DC
:10197000049800B1361FB969089808F10108884732
:10198000BBF1000FAAF1010A0290C9D00999C1F870
:101990000080C5E70298702808D0502806D0F96961
:1019A00008988847BBF1000F14D04FE00020029048
:1019B0000120BBF1000F049009D0B969089808F123
:1019C00001088847AAF10109B9F1000F07DCF9699C
:1019D000089888476FF001000BB0BDE8F08F2B2806
:1019E00004D02D280CD14FF0FF300490B96908982D
:1019F00008F101088847A9F10109B9F1000FE6DDF6
:101A0000411CE4D00A21FFF725FC0028DFDB029906
:101A100008F1010801EB810100EB41000290B96976
:101A2000089888470A21FFF715FC099AA9F10109CE
:101A3000B9F1000FC2F8008001DD0028E7DAF9698A
:101A4000089888470499029800FB016655EA04004B
:101A500004D004F04041090002D006E0039898E069
:101A6000A40044EA9574AD00B61E04F000410800DD
:101A700002D16D196441761E159810F0240F03D021
:101A80004FF00B095C4803E04FF028096FF07D0030
:101A90008246564507DAAAEB06018944B9F1410F9F
:101AA00001DD4FF0410901200021A9F1010200F000
:101AB00043F9024628400B462140084301D001214A
:101AC00000E00021501E029143F1FF3128402140E7
:101AD000084301D0012000E000200299834651EA2A
:101AE0000B014FD0002108464FF00000039900F48D
:101AF000400039B100EB80004FF4400100EBD070A2
:101B000001EA60008015012802DD4FF0FF3000E09F
:101B100013D0401C36D0029860B3BBF1000F0CD13B
:101B20004A460120002100F007F9284021400843DF
:101B300001D0012000E00020E0B101204A46002150
:101B400000F0FAF8034640190A4661412D1A8C410B
:101B500011D3B9F1400F09DD159810F0240F02D010
:101B6000AAF1340603E0AAF1170600E0761C00256E
:101B70004FF0004406E05B1E42F1FF3220EA03050D
:101B800021EA0204CAF10100B04206DA1B490398B7
:101B900008430190002000900EE0039AC4F3D32183
:101BA000E80A0A43164940EA44500A433146CDE95F
:101BB0000002684606F024F8159810F0240F0BD0A8
:101BC0001598C00715D13868DDE90012031D3B6088
:101BD0000068C0E900120CE002A8694605F0C4FFE5
:101BE0001598C00705D13868029A011D3960006850
:101BF00002604046F0E6000002FCFFFF0000F07FBC
:101C00000000F03F2DE9FF4F92461D4685B04FF092
:101C10000041DDE9124BDDE914727F1E01EA4B50F1
:101C2000414940F0FF4940EA0108002122F020002C
:101C30004928049102D04E2828D04CE03BA0012630
:101C400007C88DE80700A9690698641C88477F1EAD
:101C5000014606D41DF8060018B121F0200181428A
:101C60000BD0E96906988847032E34D0082E32D06D
:101C70006FF0010009B0BDE8F08F761C032E01D093
:101C8000082EE0D1601CCAF80000DCE7A9690698BC
:101C9000641C88477F1E2AD420F02000412826D1CA
:101CA000A9690698641C88477F1E20D420F0200074
:101CB0004E281CD1A9690698641C88477F1E48F4E9
:101CC000002849F48009CAF8004001D4282806D029
:101CD000E969069888475FEACB7012D022E0A969CB
:101CE0000698641C88477F1E01D4002803DAE9693E
:101CF00006988847BCE72928F1D1641CCAF800403F
:101D0000E9E71BF0240F07D028680499031D2B6016
:101D10000068C0E9001805E02868021D2A60006814
:101D2000C0F800902046A5E70000F07F494E4649E4
:101D30004E49545900000000B2F120030AD5C2F107
:101D4000200301FA02F120FA03F300FA02F041EA5B
:101D50000301704700FA03F14FF0000070475FEA9B
:101D6000400C08BF91F0000F4FEA8C234FEAC122CC
:101D700043EA51514FEA1C5018BF00F5F0404FEABA
:101D8000300018BF41F000415FEA6C5C00F0298030
:101D9000BCF1FF3F08BF40F080407047130C06BF06
:101DA00012044FF0100C4FF0000C130E04BF12027F
:101DB0000CF1080C130F04BF12010CF1040C930F6B
:101DC00004BF92000CF1020CD30F04BF52000CF1BF
:101DD000010C11464FF00002A0F11F00A0EB0C0017
:101DE000704711F0004F08BF704731F000413FF4D9
:101DF000D5AF0B0C06BF09044FF0100C4FF0000CD0
:101E00000B0E04BF09020CF1080C0B0F04BF0901F3
:101E10000CF1040C8B0F04BF89000CF1020CCB0FEA
:101E200004BF49000CF1010CCCF12003A0EB0C0025
:101E300022FA03F302FA0CF241EA030100F1010075
:101E4000704720F07F4C80EA030023F07F47ACEB23
:101E5000070303F57C5300F0004003F1FF032DE975
:101E600080494FEA154B09B44FEA144325EA0B4E5B
:101E700024EA03480FF2042606EB132749083E78AC
:101E80005FEA320203FB0667C7F5000707FB06F6A9
:101E90004FEA54374FEAD64606F1020607FB066CB6
:101EA000CCF1005C4FEA1C472CEA074C07FB06F418
:101EB0000CFB06F504EB15464FEA961634BF0020DE
:101EC0004FF000404FEAD13706FB07FC4FEA1C4CAD
:101ED0000CFB0BF7D21B03FB0CF761EB07010CFBB0
:101EE0000EF7B0EB074072EB17420CFB08F734BF5C
:101EF000A2EB0742B2EB074261EB17414FEA0C44F9
:101F00004FEA910706FB07FC4FEA1C4C0CFB0BF752
:101F1000B0EBC74072EB573203FB0CF734BFA2EBB8
:101F2000C742B2EBC74261EB57310CFB0EF7B0EB87
:101F3000C70072EB57720CFB08F734BFA2EBC70265
:101F4000B2EBC70261EB5771039F4FEA816141EA2F
:101F5000921104EBCC044FEAD1374FEA826206FBC0
:101F600007FC42EA90124FEA80604FEA1C4C0CFBDF
:101F70000BF7D21B03FB0CF761EB07010CFB0EF711
:101F8000B0EB074072EB17420CFB08F734BFA2EB33
:101F90000742B2EB074261EB17414FEA8C554FEA1B
:101FA000910704EB9C2406FB07FC4FEA1C4C0CFB3E
:101FB0000BF7B0EBC74072EB573203FB0CF734BFA3
:101FC000A2EBC742B2EBC74261EB57310CFB0EF7F5
:101FD000B0EBC70072EB57720CFB08F734BFA2EBF3
:101FE000C702B2EBC70261EB577115EB4C254FEA04
:101FF000816141EA92114FEA82624FEAD13742EAA7
:10200000901206FB07FC44F100044FEA80604FEA9F
:102010001C4C0CFB0BF7D21B03FB0CF761EB07010D
:102020000CFB0EF7B0EB074072EB17420CFB08F706
:1020300034BFA2EB0742B2EB074261EB174115EB4D
:102040001C154FEA813141EA92414FEA823242EA5D
:1020500090424FEA80304FEA0C7644F1000448EA9F
:1020600003434EEA0B484FF0000EB2EB080C71EB45
:10207000030724BF624639464EEB0E0E4FF0000BAD
:102080000018524149414BEB0B0BB2EB080C71EBC2
:1020900003077BF1000B24BF624639464EEB0E0E60
:1020A0004FF0000B0018524149414BEB0B0BB2EBC8
:1020B000080C71EB03077BF1000B24BF6246394625
:1020C0004EEB0E0E51EA020718BF46F0010616EB62
:1020D0000E7655F1000254F1000103D5BDE88901E7
:1020E000BDE80088BDE88901BDE80048B619524145
:1020F00041EB0101A3F10103704780807F7E7D7C6D
:102100007B7A7978777676757473727171706F6E89
:102110006E6D6C6C6B6A6A69686867666665646434
:10212000636362616160605F5F5E5E5D5D5C5C5BBE
:102130005B5A5A595958585757565655555554542D
:10214000535352525251515050504F4F4F4E4E4D8B
:102150004D4D4C4C4C4B4B4B4A4A4A4949494848D7
:102160004847474747464646454545444444444317
:1021700043434342424242414141000046EA06464F
:10218000A3F570534FEA164646EA42564FEAD2226A
:1021900042EA415210B54FEAD121A3F1010300F008
:1021A00017F820F0004000F1010C00F0004701EBAF
:1021B00000501146BCF5006F40EA070000D210BD88
:1021C00002484FF0000140EA070010BD0000F07F18
:1021D000002B26D4770021D01CB54FEA370703B473
:1021E0004FF010004FF010014FF000000FBCBDE8A1
:1021F00010400BF1010BBBF1010F08BF5FEA17079D
:1022000022BF12F1010211F101014FF0004143F12F
:10221000000300F0004043EA00007047F9D357087C
:10222000DAE746EA064613F1400F4FEA16461FDD8D
:1022300013F1200FDFBF16430A46002120335B4213
:10224000C8D0C3F1200746EA064602FA07F74FEA6C
:10225000164646EA0706C3F1200722FA03F201FAFE
:1022600007F721FA03F14FF0000342EA0702B1E752
:1022700046EA020646EA06464FEA164646EA0106DE
:10228000BCBF46EA0646360C4FF000034FF0000292
:102290004FF000019EE72DE9C048934630B491E825
:1022A000380007C831EA400C48BF34EA430C03D574
:1022B000FFF7C7FDFFF78CFFF0BCBDE800882DE9F4
:1022C000C048934630B491E8380007C831EA400C62
:1022D00048BF34EA430C03D5FFF7B3FDFFF74EFFC9
:1022E000F0BCBDE800882DE9C048934630B491E8C1
:1022F000380007C810F0804F08BF13F0804F03D19B
:1023000000F019F8FFF764FFF0BCBDE800882DE984
:10231000C048934630B491E8380007C810F0804FA9
:1023200008BF13F0804F03D100F005F8FFF726FF38
:10233000F0BCBDE8008820F07F4780EA030023F06E
:102340007F4C07EB0C03A3F57C5300F00040A3F196
:10235000FE0392F0000F00F0B38095F0000F00F044
:1023600077802DE901494FEA11404FEA144621EAEE
:10237000004800FB06FC24EA064708FB06F607FBBC
:1023800008F800FB07F718EB06484CEB164C4FEA31
:10239000124B18EB07484FEA15464CEB174022EA60
:1023A0000B4E0BFB06FC25EA06470EFB06F607FB69
:1023B0000EFE0BFB07F71EEB064E4CEB164C4FF0D8
:1023C00000061EEB074E4CEB174B18EB0B0840F1C9
:1023D000000018EB0E0B58EB000840F100008F1ABC
:1023E0004FF000013CBFC943661B14BFB5EB040CA2
:1023F00000213CBFC943F61B4FEA17444EEA8E0E3C
:1024000027EA04454FEA1C4704FB07622CEA074C05
:1024100005FB07F70CFB05F604FB0CFC16EB074667
:1024200042EB174216EB0C4642EB1C421BEB060636
:1024300058EB0202414146EA9E0601D5BDE80189FA
:10244000B619524141EB0101A3F10103BDE8018935
:102450004FEA14454FEA114724EA054621EA074CA2
:1024600005FB07F406FB07F70CFB06F105FB0CFC6C
:1024700011EB074144EB17444FEA124711EB0C41B3
:1024800044EB1C4422EA074C05FB07F206FB07F766
:102490000CFB06F605FB0CFC16EB074642EB17425D
:1024A00016EB0C4642EB1C456A1854F1000148BF7C
:1024B0007047B619524141EB0101A3F10103704786
:1024C00095F0000F37D04FEA11424FEA144721EA46
:1024D000024624EA074C02FB07F106FB07F70CFB58
:1024E00006F402FB0CFC14EB074441EB17414FEAE6
:1024F000154714EB0C4441EB1C4125EA074C02FB49
:1025000007F506FB07F70CFB06F602FB0CFC16EBC7
:10251000074645EB174516EB0C4645EB1C421219D6
:1025200051F1000148BF7047B619524141EB01011A
:10253000A3F1010370474FEA14454FEA114724EA1B
:10254000054621EA074C05FB07F106FB07F70CFBE4
:1025500006F24FF0000605FB0CFC12EB074241EBC4
:10256000174112EB0C4251EB1C4148BF70479218C7
:1025700041EB0101A3F10103704721B1826842F0F0
:102580000102826003E0826822F0010282607047EB
:1025900010B504461248844208D10121401501F0CB
:1025A00091FF0021601501F08DFF17E00D48844276
:1025B00008D10121001501F085FF0021201501F04F
:1025C00081FF0BE00848844208D10121C80301F0D3
:1025D00079FF00214FF4004001F074FF10BD0000AE
:1025E0000024014000280140003C01400146002039
:1025F0008A6802F004020AB1012000E0002070475E
:102600000146C86C80B270470246002013680B4038
:102610000BB1012000E000207047014600208A68CD
:1026200002F008020AB1012000E00020704700001B
:1026300030B502460020002350680F4C20400D7931
:102640000C6844EA05242043506090680B4C2040FD
:10265000D1E902542C434D7944EA4504204390606B
:10266000D06A20F470000C7C641EE4B2234340EA7C
:102670000350D06230BD0000FFFEF0FFFDF7F1FF18
:10268000F0B504460D4600200021092D11DDE0685B
:10269000A5F10A0606EB4607072606FA07F1884366
:1026A000A5F10A0606EB460603FA06F10843E060C8
:1026B0000CE0206905EB4507072606FA07F1884379
:1026C00005EB450603FA06F108432061072A0FDAF5
:1026D000606B561E06EB86071F2606FA07F1884335
:1026E000561E06EB860605FA06F10843606322E0F3
:1026F0000D2A0FDA206BD61F06EB86071F2606FA77
:1027000007F18843D61F06EB860605FA06F1084353
:10271000206310E0E06AA2F10D0606EB86071F2693
:1027200006FA07F18843A2F10D0606EB860605FAC4
:1027300006F10843E062F0BD816841F00801816064
:10274000704721B1826842F4A002826003E082688F
:1027500022F4A00282607047816841F00401816028
:10276000704710B501F0D2F810BD000000B587B079
:10277000012148F2100001F095FE4FF4004001F0F5
:1027800055FE0F20ADF8040000208DF8070001A9C8
:10279000174801F00FF81748FFF7FAFE00200290E3
:1027A0008DF80C008DF80D004FF46020049000208F
:1027B000059001208DF8180002A90E48FFF738FF98
:1027C00001210C48FFF7D9FE0A48FFF7B5FF00BF0B
:1027D0000848FFF722FF0028FAD10648FFF7BCFFA0
:1027E00000BF0448FFF702FF0028FAD107B000BD80
:1027F00000100140003C014008B50121402001F0DB
:1028000051FE0420ADF8000010208DF803000320D5
:102810008DF802006946044800F0CCFF042102480C
:1028200001F053F808BD00000018014010B504463F
:102830000421054801F04BF8204606F0C9FD0421AB
:10284000014801F042F810BD0018014000BFFEE74A
:1028500010B509480068094908600948094909682C
:10286000405C00B110BD08A0FDF732FD07A0FDF7E8
:102870002FFD00BFF6E700005C0A0020900000205A
:1028800069000020740000206F6B00000A00000047
:1028900070B500254FF4803404E0802002F026F863
:1028A00000B103E0201EA4F10104F6D100BF0CB971
:1028B000032070BD40F2FF5001F0D2FF2846F8E738
:1028C00070B5044605E01548456B05F0450000B1BC
:1028D00000E0F8E700BF042002F008F820B104206F
:1028E00001F0BEFF032070BD012001F0FFFF20B109
:1028F000012001F0B5FF0120F5E708480069A0427A
:1029000001D01020EFE740F2FF50044988630846E9
:10291000406908210840C0B2E5E70000008001409E
:1029200070B500264FF4803505E01148446B04F083
:10293000450000B103E0281EA5F10105F5D100BF57
:1029400015B104F0040028B10326042001F088FF2B
:10295000304670BD012001F0C9FF18B101260120E9
:1029600001F07EFF40F2FF5001F07AFF3046F0E7C1
:102970000080014010B505E00B48446B04F04500B1
:1029800000B100E0F8E700BF042001F0AFFF20B184
:10299000042001F065FF032010BD40F2FF5001F05C
:1029A0005FFF0020F8E70000008001402DE9F041C2
:1029B00005460E464FF0000805E01F48476B07F03C
:1029C000450000B100E0F8E700BF042001F08EFFF1
:1029D00028B1042001F044FF0320BDE8F08101206C
:1029E00001F084FF20B1012001F03AFF0120F4E75B
:1029F00011480069A84201D01020EEE740F2FF50D4
:102A000001F02EFF0C48446904F4604018B9200C12
:102A100030804046E1E704F4005008B11320DCE7C1
:102A200004F4804008B11020D7E704F4004008B156
:102A30000F20D2E74046D0E70080014070B5002665
:102A40004FF4803505E00F48446B04F0450000B1B9
:102A500003E0281EA5F10105F5D100BF15B104F072
:102A6000040028B10326042001F0FAFE304670BDB0
:102A700004F0400018B10026402001F0F1FE30467D
:102A8000F5E700000080014070B598A0FDF720FC3C
:102A900098A0FDF71DFC95A0FDF71AFC9A4908685F
:102AA00011F058FD044622460B4698A0FDF710FC95
:102AB0009549486811F04EFD044622460B4696A003
:102AC000FDF706FC9049886811F044FD0446224653
:102AD0000B4693A0FDF7FCFB8B49C86811F03AFD4B
:102AE000044622460B4690A0FDF7F2FB7FA0FDF7BF
:102AF000EFFB8FA0FDF7ECFB7CA0FDF7E9FB934912
:102B0000086811F027FD044622460B4690A0FDF709
:102B1000DFFB8E49486811F01DFD044622460B4636
:102B20007DA0FDF7D5FB8949886811F013FD0446A7
:102B300022460B467AA0FDF7CBFB8449C86811F00A
:102B400009FD044622460B4677A0FDF7C1FB67A0AE
:102B5000FDF7BEFB81A0FDF7BBFB64A0FDF7B8FB52
:102B60008648016886A0FDF7B3FB8448416887A0CA
:102B7000FDF7AEFB8148816886A0FDF7A9FB7F4881
:102B8000C16886A0FDF7A4FB58A0FDF7A1FB85A0B6
:102B9000FDF79EFB55A0FDF79BFB9048006811F0E8
:102BA000D9FC044622460B468DA0FDF791FB8F48C9
:102BB000006811F0CFFC044622460B468CA0FDF7BE
:102BC00087FB4AA0FDF784FB8B48FDF781FB47A0FC
:102BD000FDF77EFB8948006811F0BCFC04462246E4
:102BE0000B4687A0FDF774FB8848006811F0B2FC23
:102BF000044622460B4686A0FDF76AFB864801681C
:102C000086A0FDF765FB8748006811F0A3FC044629
:102C100022460B4684A0FDF75BFB8548006811F057
:102C200099FC044622460B463DA0FDF751FB814826
:102C3000006811F08FFC044622460B463AA0FDF7CF
:102C400047FB2AA0FDF744FB7BA0FDF741FB27A033
:102C5000FDF73EFB7D49086811F07CFC04462246E6
:102C60000B467BA0FDF734FB7849486811F072FCF5
:102C7000044622460B4628A0FDF72AFB73498868C4
:102C800011F068FC044622460B4674A0FDF720FBB9
:102C900016A0FDF71DFB73A0FDF71AFB13A0FDF7AF
:102CA00017FB7448006811F055FC044622460B4699
:102CB00071A0FDF70DFB7348006810F025FD064676
:102CC00011F048FC044622460B466FA0FDF700FBBE
:102CD0006F48006810F004FD064611F03BFC044606
:102CE00022460B466BA0FDF7F3FA70BD6563686F73
:102CF0003A00000053746570732070657220756E21
:102D000069743A0A00000000CC21002020204D39CF
:102D1000322058256600000020592566000000007A
:102D2000205A256600000000204525660D0A000097
:102D30004D6178696D756D20666565647261746555
:102D40007320286D6D2F73293A0D0A00BC210020D5
:102D500020204D3230332058256600004D617869BF
:102D60006D756D20416363656C65726174696F6E2A
:102D700020286D6D2F7332293A0D0A00DC210020C6
:102D800020204D3230312058256C64002059256CAC
:102D900064000000205A256C640000002045256C6A
:102DA000640D0A00416363656C65726174696F6EDE
:102DB0003A20533D616363656C65726174696F6E3F
:102DC0002C20543D72657472616374206163636585
:102DD0006C65726174696F6E0D0A0000C800002096
:102DE00020204D323034205325660000CC000020D6
:102DF000205425660D0A000090590108C4000020E7
:102E000020204D323035205325660000DC000020A4
:102E10002054256600000000C00000202042256CE0
:102E200064000000D000002020582566000000004B
:102E3000D4000020D8000020486F6D65206F6666C2
:102E400073657420286D6D293A0D0A00EC0A002084
:102E500020204D323036205825660000205A256645
:102E60000A0000005049442073657474696E6773EA
:102E70003A0D0A00640100202020204D333031201B
:102E800050256600680100202049256600000000EA
:102E90006C010020204425660D0A000010B58CB09E
:102EA000354AD2E901311068D268CDE909310B9277
:102EB0000890314B1033D3E90020D3E9021305AC5D
:102EC0000BC404922C4B2033D3E90012D3E9020344
:102ED000CDE90203CDE90012002412E008A850F861
:102EE0002400264941F8240004A850F8240024496D
:102EF00041F824005DF82400224941F82400601CB8
:102F0000C4B2042CEADB0FF07DFF1F481F490860A4
:102F10001F49086000201F49086044F620601E49D0
:102F2000086000201D4908601D481E4908601E48B1
:102F30001E4908601E481F49086000201E4988601D
:102F4000486008601D481E4908601E480FF08EFF4B
:102F50001D4908601D480FF075FF1D49086010F0FD
:102F6000E7FB00F013F91BA0FDF7B2F91BA0FDF77A
:102F7000AFF90CB010BD0000D44D0108CC210020E9
:102F8000BC210020DC21002000803B45C80000203F
:102F9000CC000020C4000020C0000020DC00002085
:102FA0000000A041D0000020CDCCCC3ED4000020B9
:102FB0000000A040D8000020EC0A00209A99B141FE
:102FC00064010020713D8A3F680100200000104329
:102FD0006C0100206563686F3A000000486172640C
:102FE000636F6465642044656661756C7420536525
:102FF0007474696E6773204C6F616465640D0A00B8
:103000001CB53FA00068009004224FF4A00101A865
:1030100003F078F96A4601A93AA0FDF759F90322AD
:1030200001A96846FDF747FB002863D110223E49FD
:103030003E4803F067F910223B4910313C4803F049
:1030400061F91022384920313A4803F05BF90FF05A
:10305000D9FE042234493031374803F053F90422B1
:1030600031493431354803F04DF904222E493831C5
:10307000334803F047F904222B493C31314803F02F
:1030800041F90422284940312F4803F03BF904223A
:10309000254944312D4803F035F9042222494831AD
:1030A0002B4803F02FF904224FF05011294803F068
:1030B00029F90C221C495031274803F023F9042236
:1030C00019495C31254803F01DF904221649603185
:1030D000234803F017F9042213496431214803F00F
:1030E00011F910F025FB20A0FDF7F2F820A0FDF764
:1030F000EFF801E0FFF7D2FEFFF7C6FC1CBD0000B1
:103100005630310053746F7265642056657273696E
:103110006F6E3A202573202C2076657273696F6E6E
:103120003A2025730A00000004005000CC21002042
:10313000BC210020DC210020C8000020CC000020A1
:10314000C4000020DC000020C0000020D0000020CF
:10315000D4000020D8000020EC0A002064010020E8
:10316000680100206C0100206563686F3A00000070
:1031700053746F7265642073657474696E6773202D
:103180007265747269657665640D0A001CB539A0B4
:103190000068019038A00068009004224FF4A0015C
:1031A00001A803F01BF910223449354803F016F941
:1031B000102232491031334803F010F910222F4900
:1031C0002031314803F00AF904222C4930312F48CC
:1031D00003F004F90422294934312D4803F0FEF8A4
:1031E0000422264938312B4803F0F8F804222349F9
:1031F0003C31294803F0F2F80422204940312748A5
:1032000003F0ECF804221D494431254803F0E6F8A8
:1032100004221A494831234803F0E0F804224FF011
:103220005011214803F0DAF80C22144950311F489C
:1032300003F0D4F8042211495C311D4803F0CEF8A4
:1032400004220E4960311B4803F0C8F804220B49E0
:103250006431194803F0C2F804224FF4A001684613
:1032600003F0BCF815A0FDF733F816A0FDF730F811
:103270001CBD0000563130005630310004005000B3
:10328000CC210020BC210020DC210020C80000202F
:10329000CC000020C4000020DC000020C000002082
:1032A000D0000020D4000020D8000020EC0A00202C
:1032B00064010020680100206C0100206563686FD4
:1032C0003A00000053657474696E67732053746F1D
:1032D0007265640D0A00000021B1026842F001022B
:1032E000026004E002684FF6FE731A400260704705
:1032F00001684FF6FE7211400160002101604160DB
:103300008160C1604B49884208D14A4908394968FF
:1033100041F00F01474A083A51608AE045491431AB
:10332000884208D143490839496841F0F001414ACF
:10333000083A51607DE03F492831884208D13D4933
:103340000839496841F470613A4A083A516070E0BE
:1033500038493C31884208D136490839496841F436
:103360007041344A083A516063E032495031884232
:1033700008D130490839496841F470212D4A083A8A
:10338000516056E02B496431884208D129490839F7
:10339000496841F47001274A083A516049E02549DB
:1033A0007831884208D123490839496841F0706171
:1033B000204A083A51603CE01F49884206D1011F6B
:1033C000096841F00F01021F116032E01A491431FF
:1033D000884208D11849091F096841F0F001164ACE
:1033E000121F116025E014492831884208D1124982
:1033F000091F096841F470610F4A121F116018E03B
:103400000D493C31884208D10B49091F096841F434
:103410007041094A121F11600BE007495031884280
:1034200007D10549091F096841F47021024A121F9A
:1034300011607047080002400804024010B50022E5
:10344000026847F6F0739A430C6A8B6823430C6951
:1034500023434C6923438C692343CC6923434C6A3F
:1034600023438C6A23431A430260CB6843600B6892
:1034700083604B68C36010BD7047000010B50A2020
:1034800005F0A6FF0448006810B901200349087040
:10349000012000F03BF810BD00812242A600002070
:1034A0001FB50121084600F0FDFF0121202000F09A
:1034B000F9FF0120ADF8000048208DF803006946AF
:1034C000114800F077F90021032000F053F90120A2
:1034D000029000208DF80C000C208DF80D000120CA
:1034E0008DF80E0002A800F017F806208DF80400F1
:1034F00002208DF805008DF8060001208DF80700E8
:1035000001A800F0D7FC1FBD00140140014908606C
:103510007047000014040140002123498279002AE9
:103520003AD00A46126803689A430B461A600A1D8D
:10353000126803689A430B1D1A60027911440A68E5
:1035400003681A430A60184A0832126803689A43EB
:10355000154B08331A601A1D126803689A43124B00
:103560000C331A604279102A0ED11A1F12680368B0
:103570001A430D4B08331A601A1D126803681A4368
:10358000094B0C331A600DE00749427911440A686F
:1035900003681A430A6005E0027911440A68036867
:1035A0009A430A6070470000000401402DE9FC4185
:1035B00007460D46002600240020009001900820B8
:1035C0005B49086010204860402088600020C86087
:1035D0004FF480600861084601F0BEF91020FFF743
:1035E0006FF9044614B12046BDE8FC8151480088BB
:1035F00000044F4908603720486040208860002060
:10360000C8604FF480600861084601F0A5F93720D2
:10361000FFF756F904460CB12046E5E74FF0FF30BE
:103620004549086008204860302088600220C86052
:103630000020086101204861084601F02DF90020B2
:103640003B49086033204860402088600020C86003
:103650004FF480600861084601F07EF93320FFF7DF
:103660002FF904460CB12046BEE70CE04FF40010E1
:1036700001F03CF938B101F069F94DF82600761CEB
:10368000022E00D306E02D48406B40F22A6108402C
:103690000028EBD000BF082001F028F920B1082055
:1036A00001F0DEF804209FE7022001F01FF920B1AD
:1036B000022001F0D5F8022096E7202001F016F94B
:1036C00020B1202001F0CCF806208DE74FF40070E7
:1036D00001F00CF928B14FF4007001F0C1F8072097
:1036E00082E740F2FF5001F0BBF800980006009915
:1036F00001F47F4140EA0120009901F47F0140EA92
:103700001120009940EA1160686001980006019953
:1037100001F47F4140EA0120019901F47F0140EA70
:103720001120019940EA1160286020465CE7000002
:10373000D02C0020CC010020E42C0020008001408F
:1037400010B500F08DFB06A0FCF7C2FD074801682C
:10375000491C07A0FCF7BCFDFFF77AF810BD00007C
:10376000526573656E643A2000000000600000201E
:1037700025640A0030B500228B071C0F0F2303FAC3
:1037800004F20B4B8C1053F824309343084C8D10EB
:1037900044F8253023468C1053F824308C07240F2E
:1037A00000FA04F42343024C8D1044F8253030BD58
:1037B000080001402DE9F0410246002500260020C6
:1037C00000230024002791F803C00CF00F0591F8A6
:1037D00003C00CF0100CBCF1000F03D091F802C034
:1037E0004CEA050591F800C0BCF1000F31D0146817
:1037F00000202BE04FF0010C0CFA00F3B1F800C0F0
:103800000CEA03069E4220D183004FF00F0C0CFA05
:1038100003F7BC4305FA03FC4CEA040491F803C027
:10382000BCF1280F06D14FF0010C0CFA00FCC2F8D5
:1038300014C00AE091F803C0BCF1480F05D14FF065
:10384000010C0CFA00FCC2F810C0401C0828D1D3AF
:103850001460B1F800C0BCF1FF0F34DD54680020E3
:103860002EE000F1080C4FF0010808FA0CF3B1F853
:1038700000C00CEA03069E4221D183004FF00F0CDA
:103880000CFA03F7BC4305FA03FC4CEA040491F874
:1038900003C0BCF1280F05D100F1080C08FA0CF8A0
:1038A000C2F8148091F803C0BCF1480F07D100F1B1
:1038B000080C4FF0010808FA0CF8C2F81080401C00
:1038C0000828CED35460BDE8F081416170470161A2
:1038D0007047000010B5044607230122214609481D
:1038E000FEF7CEFE01210748FEF72BFF00BF0221A5
:1038F0000448FEF789FE0028F9D00248FEF780FE52
:1039000010BD0000003C014000BFFEE708B50121EA
:10391000082000F0C7FDC020ADF8000010208DF891
:10392000030003208DF8020069460448FFF742FFB8
:10393000C0210248FFF7CBFF08BD0000000C01408A
:1039400072B6704762B670471CB5044600200190FD
:103950000090214800880004204908600D2048603C
:10396000402088600020C8604FF4806008610846ED
:1039700000F0F2FF1A48406B009002E01848406BDC
:103980000090009800F045000028F7D0012000F0DA
:10399000ADFF20B1012000F063FF01201CBD042019
:1039A00000F0A4FF20B1042000F05AFF0320F5E747
:1039B0000B4800690D2801D01020EFE740F2FF50BE
:1039C00000F04EFF0648406901900198C0F3432083
:1039D00020700020E2E70000CC010020D02C002065
:1039E000008001400148007870470000A5000020D9
:1039F0000146CA1701EB92729210A1EB820292B9B2
:103A0000642091FBF0F200FB121050B94FF4C87023
:103A100091FBF0F200FB121008B901207047002062
:103A2000FCE70120FAE70020F8E7000008B50121D3
:103A3000542000F037FD4FF47860ADF800004820C6
:103A40008DF8030069460248FFF7B4FE08BD000088
:103A500000180140014611B101202A4A107029487E
:103A60000078002832D02848006878B126481038FD
:103A7000006858B12448001F006838B122480C384B
:103A8000006818B1204808380068F8B900201D4ABD
:103A900010701D48006808B9012070471A48103896
:103AA000006808B90220F8E71748001F006808B945
:103AB0000320F2E714480C38006808B90420ECE74A
:103AC000114808380068D8B90520E6E70E480068B4
:103AD000012815D10C4810380068012810D10A4877
:103AE000001F006801280BD107480C380068012826
:103AF00006D1054808380068012801D1014A107034
:103B00000020CAE7D80100202C01234210B5302044
:103B100000F03CF9502005F081FC032000F036F95C
:103B2000052005F055FC012000F030F9052005F0D6
:103B30004FFC062000F02AF9502005F06FFC0C2005
:103B400000F024F9502005F069FC10BD70B5362056
:103B500000F01CF9502005F061FC00241BE004F18A
:103B60008001C8B200F012F9142005F057FC802043
:103B700000F00CF9142005F051FC002507E00020AE
:103B800000F024F9142005F049FC681CC5B2102D82
:103B9000F5DB601CC4B2202CE1DB00241BE004F147
:103BA0008001C8B200F0F2F8142005F037FC88203C
:103BB00000F0ECF8142005F031FC002507E00020AF
:103BC00000F004F9142005F029FC681CC5B2102D82
:103BD000F5DB601CC4B2202CE1DB70BD2DE9F05F89
:103BE00005460F4690469946B9F1010F01D1FFF7FE
:103BF000ADFF802615B9802510240DE0012D02D1DE
:103C00008025202408E0022D02D18825102403E01D
:103C1000032D01D188252024E81900F0FF0B33E0A3
:103C2000C246342000F0B2F8142005F0F7FB30460D
:103C300000F0ACF8142005F0F1FB584600F0A6F8AF
:103C4000142005F0EBFB302000F0A0F8142005F064
:103C5000E5FB12E0102C06DD002000F0B7F8142080
:103C600005F0DCFB02E0FF2000F0B0F8142005F0C6
:103C7000D5FBAAF1010000F0FF0ABAF1000FE9D16B
:103C8000701CC6B2601EC4B2002CC9D1362000F030
:103C90007DF8502005F0C2FB302000F077F850206E
:103CA00005F0BCFBBDE8F09F08B50121402000F005
:103CB000F9FB4FF21000ADF8000003208DF8020070
:103CC00010208DF8030069460448FFF773FD4FF498
:103CD00000410248FFF7F9FD08BD0000001801404F
:103CE00070B505460E46144621E018E006EBC50106
:103CF000124A505C00F04AF8502005F08FFB14F88F
:103D0000010B00F063F8502005F088FB14F8010B5C
:103D100000F05CF8502005F081FB701CC6B2082E44
:103D200002DA20780028E1D10026681CC5B2042DF3
:103D300002DA20780028D8D170BD0000D901002017
:103D400070B5054600241BE005FA04F000F0800081
:103D500028B14FF400510C48FFF7B9FD04E04FF4CF
:103D600000510948FFF7B1FD4FF480410648FFF7C5
:103D7000AEFD4FF480410448FFF7A7FD601CC4B2BC
:103D8000082CE1DB70BD00000018014010B50446AE
:103D90004FF480510C48FFF79AFD4FF480410A48D8
:103DA000FFF793FDF820FFF7CBFF04F0F000FFF7DB
:103DB000C7FFF02101EA0410FFF7C2FF4FF4805162
:103DC0000148FFF782FD10BD0018014010B5044600
:103DD0004FF480510C48FFF77AFD4FF480410A48B8
:103DE000FFF773FDFA20FFF7ABFF04F0F000FFF7D9
:103DF000A7FFF02101EA0410FFF7A2FF4FF4805162
:103E00000148FFF762FD10BD0018014008B501210F
:103E1000402000F047FB6020ADF8000010208DF836
:103E2000030003208DF8020069460648FFF7C2FC34
:103E300020210448FFF74BFD40210248FFF747FDD2
:103E400008BD000000180140044890F880000349B4
:103E500091F88410401A00F07F007047C83B0020A2
:103E60000348D0F884000249C1F880007047000080
:103E7000C83B00200C48D0F880000B4AD2F88420C0
:103E8000904201D1002070470748D0F88400064ACC
:103E9000115C104690F88400401C00F07F00C2F8CE
:103EA00084000846EFE70000C83B002000BFFEE7A3
:103EB0007047000070B5002100230F22C47804B3BE
:103EC000154C246804F4E064C4F5E064210AC1F1EF
:103ED0000403CA40447804FA03F18478144021436F
:103EE00009010E4C0678A155047804F01F05012441
:103EF000AC4005786D11AD0005F1E025C5F8004135
:103F000009E0047804F01F050124AC40044D067854
:103F1000761145F8264070BD0CED00E000E400E0AD
:103F200080E100E002490143024A1160704700004D
:103F30000000FA050CED00E02DE9F74F96B082463F
:103F40000C4600201590804601201490E54800683A
:103F50001390139F139FB9460020129011900B905D
:103F6000E1480A90012C05DDE0A0FCF7B1F919B099
:103F7000BDE8F08FE8A0FCF7ABF905F017FD002CC9
:103F800005DA7F20E94908707F252E4604E07F206E
:103F9000E74908557F252E4600BFE64800780128EE
:103FA00075D10FF0DBFB002C02DAE348006802E079
:103FB000E24850F82400159015990B9810F0C2FDB6
:103FC00001D20B9800E015980B9015990A9810F003
:103FD000B9FC01D20A9800E015980A9014980128BB
:103FE00022D15046159910F0ADFC1DD2BD48006895
:103FF000A0EB090041F28831884215D900201490C5
:10400000002C05DAA81BC0F34700C849087004E07B
:10401000A81BC0F34700C6490855B2480768A7EB7C
:1040200009001290CDF82CA014980028B8D1504661
:10403000159910F087FD2AD2AA480068C01B41F2EA
:104040008831884223D901201490A648D0F80090E6
:10405000A9EB07001190B8F1000F7DDDDDE911102B
:10406000401A7043129A114490FBF1F00544142D4C
:1040700001DA142010E0002C01DAFF2000E0FF201C
:104080001438A84207DA002C02DAFF2001E0DEE053
:10409000FF20143800E028460546002C01DAFF21F5
:1040A00000E0FF2101EBD171B5EB610F07DD002CC2
:1040B00001DAFF2000E0FF20401E461B00E02E46F4
:1040C00029469FA0FCF704F93146A0A0FCF700F9AF
:1040D0000A9810F03FFA02460B46CDE908019DA070
:1040E000FCF7F6F80B9810F035FA02460B46CDE9CE
:1040F00008019BA0FCF7ECF8B8F1020FADDDDDE99B
:104100000A1010F05BFD834610F024FA974A984B92
:10411000CDE900010FF00EFF00224FF08043CDE902
:1041200002010FF0AFFCCDE9060130460FF09BFE17
:104130000022904BCDE902010FF0FCFECDE9040115
:10414000DDE906230FF09EFCCDE908010FF0ACFB82
:104150001090DDE9111200E068E0881810F0C6FB4D
:10416000834610F0F7F90022834BCDE906010FF0EA
:1041700089FCCDE908010FF097FB0F90109810F023
:10418000E9F902460B46CDE908017CA0FCF7A0F84E
:104190000F9810F0DFF902460B46CDE9080179A02F
:1041A000FCF796F8109810F0D5F94FF03332774BB2
:1041B000CDE906010FF0BEFECDE908010FF074FB5A
:1041C0000E904FF080400E9910F0F0FB83460F994F
:1041D00010F05AFA0D90DDE90E0110F0E7FB83466E
:1041E0004FF0824110F050FA0C9069A0FCF770F883
:1041F0000E9810F0AFF902460B46CDE9080168A011
:10420000FCF766F80D9810F0A5F902460B46CDE9CB
:10421000080165A0FCF75CF80C9810F09BF90246C9
:104220000B46CDE9080162A0FCF752F8002C05DA34
:10423000A819C0F347003D49087004E0A819C0F36D
:1042400047003B49085508F10108CDF828A05A4914
:10425000504610F0ABF98346159910F073FB03D26A
:1042600056A0FCF735F882E61E4801681398081A34
:10427000B0F5FA6F1ED9002C06DA2C4890F800B081
:1042800059A0FCF725F805E0294810F804B058A01B
:10429000FCF71EF8159810F05DF902460B46CDF8B4
:1042A00000B0CDE9080154A0FCF712F80D480068F1
:1042B000139000BF0B480068C01B0A490968A1EBB6
:1042C000090108444E49884203D94EA0FCF700F882
:1042D0004DE6189880457FF760AE5248FBF7F8FF2F
:1042E00000BF44E65C0A002000401C4650494420C0
:1042F0004175746F74756E65206661696C65642EB6
:1043000020426164206578747275646572206E75F0
:104310006D6265722E000000504944204175746F33
:1043200074756E6520737461727400009D010020C5
:104330009C01002071010020600100205801002034
:1043400020626961733A20256C64000020643A2081
:10435000256C6400206D696E3A202566000000001F
:10436000206D61783A202566000000006E861BF003
:10437000F92109400000104000408F40204B753A61
:10438000202566002054753A202566003333E33F2C
:1043900020436C6173696320504944200000000091
:1043A000204B703A20256600204B693A2025660094
:1043B000204B643A202566000000A041504944206B
:1043C0004175746F74756E65206661696C656421F2
:1043D0002054656D706572617475726520746F200C
:1043E00068696768000000006F6B20423A000000B7
:1043F0006F6B20543A000000256620403A25640087
:10440000804F1200504944204175746F74756E6579
:10441000206661696C6564212074696D656F7574CF
:1044200000000000485A01087047000001460020C3
:10443000034A506820F44040084350607047000031
:104440000010024029B1064A52690243044B5A61E6
:1044500004E0034A52698243014B5A6170470000ED
:104460000010024029B1064AD2690243044BDA61C6
:1044700004E0034AD2698243014BDA6170470000CD
:104480000010024029B1064A12690243044B1A6126
:1044900004E0034A12698243014B1A61704700002D
:1044A0000010024029B1064A92690243044B9A6106
:1044B00004E0034A92698243014B9A61704700000D
:1044C0000010024029B1064AD2680243044BDA6068
:1044D00004E0034AD2688243014BDA60704700006F
:1044E0000010024030B500210022002400232D4D91
:1044F0006D6805F00C0121B1042905D0082923D1EC
:1045000005E0294D056022E0274D05601FE0254D9F
:104510006D6805F47012234D6D6805F48034022532
:1045200005EB92421CB9214D554305600BE01D4D32
:104530006D6805F400351DB11C4D5543056002E062
:10454000194D5543056002E0174D056000BF00BFDF
:10455000144D6D6805F0F0010909154D6B5C056897
:10456000DD4045600F4D6D6805F4E061090A104DAE
:104570006B5C4568DD4085600A4D6D6805F46051EF
:10458000C90A0B4D6B5C4568DD40C560054D6D6823
:1045900005F44041890B074D6B5CC568B5FBF3F52D
:1045A000056130BD0010024000127A0000093D0094
:1045B000610A0020710A0020024909888143014AEA
:1045C000118070470428004070B5002600240025A3
:1045D00000F07AF806463848B6FBF0F43748008811
:1045E000A0423CD035490C8040F2B27510E028461C
:1045F000FFF7FEF940B1B4F5B77F02D3A4F5B77465
:1046000004E0681C85B206E0A4F26D14681C85B253
:10461000B4F5B67FEBD800BF29488580002516E0A9
:1046200027498888FFF7E4F930B1012D04D11D2C0A
:1046300001D31D3C09E00CE02248405DA04203D8B4
:104640002048405D241A00E003E0681C85B21C2C61
:10465000E6D200BF681C1A498871601CC8711648F0
:10466000B6FBF0F100FB11644FF46160B4FBF0F0B5
:10467000134908704FF46160B4FBF0F100FB114086
:104680003C21B0FBF1F00E4948704FF46160B4FB7F
:10469000F0F100FB11403C21B0FBF1F201FB1200F4
:1046A000074988700B46DA799979988800F028F8DC
:1046B00003490872002070BD80510100BC00002039
:1046C000B0210020104E0108002103480188001F7E
:1046D000008841EA004070471C2800400146002045
:1046E000064A12880A40D0B2044A121F12880A40B1
:1046F00012B108B1012000E00020704704280040FA
:10470000F0B503460C461546642093FBF0F0C6B2A4
:10471000642093FBF0F700FB1730C1B2132E02DDCB
:1047200001F16400C1B20846CF1701EB977701EBA6
:10473000A707BAB2072092FBF0F700FB172082B25E
:104740005719601EDFF82CC01CF80000384482B2F4
:10475000CF1701EB9777BF10A1EB87071FB9032C89
:1047600001DA501E82B2072092FBF0F700FB1720FF
:10477000C0B2F0BD044E010810B50120FFF7AEFF36
:1047800008B1FFF721FF0220FFF7A8FF10B10220B8
:10479000FFF712FF0520FFF70FFF00F001F810BD33
:1047A00000BF0348008800F020000028F9D07047BF
:1047B000042800407CB505460024002000900190AC
:1047C00000260DB1022600E000262248406900F0D4
:1047D000007008B10E207CBD1F49098888B2694667
:1047E000FEF7E4FE04460CB12046F4E7019800F41D
:1047F000802060B3184800880004184908603720FA
:104800004860402088600020C8604FF480600861E4
:10481000084600F0A1F83720FEF752F804460CB124
:104820002046D8E70D48066006200C494860402025
:1048300088600020C8604FF480600861084600F07E
:104840008BF80620FEF73CF804462046C3E72520F7
:10485000C1E7000000800140CC010020D02C0020E6
:1048600001498863704700000080014001490860E9
:1048700070470000A00030420146034A506820F013
:10488000FF00084350607047008001400149086004
:10489000704700008C05304200210A4B02685A62C2
:1048A00042689A621A46D16A21F0F701D0E90223E0
:1048B0001A4303691A4343691A431143014AD162F7
:1048C00070470000008001400020064908604860F1
:1048D0008860C86048628862C862034888630020B4
:1048E000C863704700800140FF07C00001460020F8
:1048F000034A526B0A400AB1012000E000207047D1
:10490000008001400248006800F00300704700008A
:104910000080014010B500F05FFC10BD00210A4A84
:10492000516847F6FF629143027D83681A434368EA
:104930001A43C3681A4303681A4303691A431143AD
:10494000014A516070470000008001400148006842
:1049500070470000808001400021094B02689A6086
:104960001A46D1686FF30A01D0E901231A43C368DC
:104970001A4303691A431143014AD160704700008A
:10498000008001400549096821F00301034A1160D4
:104990001146096801431160704700000080014022
:1049A00001490860704700008080014070B58CB0FC
:1049B00006460C46154601210220FFF743FD134829
:1049C000FEF796FC00211148FEF786FC1048019086
:1049D00002960395A0080490002005908020069080
:1049E0008000079080000890002009904FF400504C
:1049F0000A9000200B9001A90448FEF71FFD00213A
:104A00000248FEF769FC0CB070BD0000440402408F
:104A10008080014070B504460025164800780328C0
:104A200001D1272070BD1348007838B111480078B3
:104A3000012803D00F480078022818D1022C01D396
:104A40002720EFE7E0B2FFF7B5FE05467DB90A483B
:104A5000406820F4C0500849486008464068A1B248
:104A600040EAC1200449486008464068486028463A
:104A7000D8E70000C801002000800140F0B50146E1
:104A800000200022BE4B1B7881F85630BD4B1B889E
:104A9000A1F85430BC4B1B681A0E93090B70C2F37B
:104AA00083034B7002F003038B70B74B1B68C3F397
:104AB0000742CA70B44B1B88C3F307220A71B24B7A
:104AC0001A784A715B681A0E1301CB80AE4B5B6893
:104AD000C3F30742CB8843EA1213CB8002F00F03E3
:104AE0000B72A94B9B88C3F30722D3094B72C2F305
:104AF00080138B72C2F34013CB72C2F300130B739B
:104B000000234B739E4B1B783BB19D4B1B78012BB5
:104B100003D09B4B1B78032B4FD193071B0D0B61CD
:104B2000994B1A790B6943EA82030B61964B9B6898
:104B30001A0E0B6943EA92130B61C2F3C2030B75A1
:104B400002F007034B75904B9B68C3F30742530970
:104B50008B75C2F38203CB7593075B0F0B768A4B81
:104B60001B89C3F307220B7E43EAD2130B760B6932
:104B70005B1C0024C1E912340B7E9B1C012404FA47
:104B800003F3DC17D1E91256A5FB037C06FB03C334
:104B900005FB0433C1E912730C7A0123A3400B65B2
:104BA0000024D1E912650B6DA6FB037C05FB03C352
:104BB00006FB0433C1E912732EE0714B1B78022B04
:104BC0002AD1714B1A7993069B0A0B616E4B9B6835
:104BD0001A0E0B6943EA02230B616B4B9B68C3F30C
:104BE00007420B6913430B61674B1B89C3F3072211
:104BF0000B695B1C4FF40074A3FB04464FF4806305
:104C00000025A4FB037C06FB03C304FB0533C1E9B9
:104C100012734FF400730B65C2F3801301F8193F50
:104C200093065B0E4B70584B1A7A4B7843EAD213BB
:104C30004B7002F07F038B70534BDB681A0ED30965
:104C4000CB70C2F341130B71C2F382034B71930714
:104C50001B0F8B714C4BDB68C3F307428B7943EA24
:104C600092138B71C2F34013CB7100230B7202F0CD
:104C700001034B72444B9B89C3F30722D3098B7208
:104C8000C2F38013CB72C2F340130B73C2F3001351
:104C90004B73C2F381038B7302F00303CB733A4B64
:104CA0001A7B53080B7401234B74384B1B681A0E84
:104CB000CA741939354B1B68C3F307421402CC85FB
:104CC000324B1B88C3F30722CB8D1343CB852F4B6D
:104CD0001A7814060C635B681A0E0B6B43EA0244E5
:104CE0000C632A4B5B68C3F307420B6B43EA022455
:104CF0000C63264B9B88C3F307220B6B13430B6398
:104D0000224B1A7934235A54204B9B681A0E3523B0
:104D10005A541E4B9B68C3F3074214068C631B4B0B
:104D20001B89C3F307228B6B43EA02448C63174B46
:104D30001A7A8B6B43EA02248C63144BDB681A0EDD
:104D40008B6B13438B63114BDB68C3F307423C232C
:104D50005B5C43EA12143C235C5413071C0DCC87A4
:104D60000A4B9B89C3F30722CB8F1343CB87074B97
:104D70001A7B540840235C54012441235C54F0BD49
:104D8000C8010020CC010020FC2C00200C2D0020AC
:104D90007CB50025002401213020FFF783FB012191
:104DA00040F20240FFF74EFB4FF4F850ADF8000020
:104DB00018208DF8030003208DF80200694636485C
:104DC000FEF7F8FC0420ADF8000018208DF8030071
:104DD00003208DF8020069463048FEF7EBFC802086
:104DE000ADF8000048208DF8030003208DF8020084
:104DF00069462A48FEF7DEFC4020ADF80000482056
:104E00008DF8030003208DF8020069462248FEF762
:104E1000D1FCFFF759FD31208DF8040000208DF8FA
:104E200005008DF8060001208DF8070001A8FFF7A6
:104E300041F800F0E3F8044614B900F035F80446F0
:104E40001CB91748FFF71AFE044634B91449B1F8E3
:104E50005410080400F04AFD04461CB90120FFF775
:104E6000D9FD04461CB10F480078032812D10C4824
:104E700090F8560020B10A4890F85600012801D158
:104E80000A2500E004252846FFF7F6FC002000F084
:104E900045FD044620467CBD001001400014014041
:104EA000202D0020C801002038B5002401200090EA
:104EB000FFF728FD08B9252038BD4A4800780428A6
:104EC00021D000204849086002204860C020886046
:104ED0000020C8604FF4806008610846FFF73CFD81
:104EE000FDF71EFD04460CB12046E5E73F4840694A
:104EF0003F4908603D48806948603C48C069886017
:104F00003A48006AC8603748007858B13548007898
:104F1000012807D033480078062803D031480078AC
:104F2000022816D100203049086003204860402044
:104F300088600020C8604FF4806008610846FFF771
:104F40000BFD69460320FDF731FD04460CB12046F8
:104F5000B2E724480078032816D1BDF80000000409
:104F60002149086003204860402088600020C86014
:104F70004FF4806008610846FFF7EEFCFDF7D0FCB7
:104F800004460CB1204697E716480078042827D03D
:104F9000BDF8000017490860BDF800000004124980
:104FA000086009204860C02088600020C8604FF475
:104FB000806008610846FFF7CFFCFDF7B1FC0446AE
:104FC0000CB1204678E7094840690B49086007485A
:104FD000806948600548C06988600448006AC86004
:104FE000002069E7C8010020D02C0020008001408B
:104FF0000C2D0020CC010020FC2C00202DE9F047D6
:105000000027002400260025A046A146B2206C49B6
:1050100008750020086048608860C860086108461C
:10502000FFF77CFC0320FFF7ADFC0120FFF71EFC1F
:1050300000BF12E000206349086048608860C860D3
:105040004FF4806008610846FFF786FCFDF720FCFE
:10505000044604B903E0781CC7B24A2FEADB00BF5C
:1050600014B12046BDE8F0874FF4D570554908606B
:1050700008204860402088600020C8604FF48060AD
:1050800008610846FFF768FCFDF7D8FC044624B920
:1050900001204D4908704FF08049002049490860BF
:1050A00037204860402088600020C8604FF480604E
:1050B00008610846FFF750FC3720FDF701FC044665
:1050C000002C4BD134E000203E4908603720486076
:1050D000402088600020C8604FF480600861084666
:1050E000FFF73AFC3720FDF7EBFB04460CB12046F6
:1050F000B8E7364849EA000032490860292048608C
:10510000402088600020C8604FF480600861084635
:10511000FFF722FCFDF72EFC04460CB12046A1E768
:105120002B484669012080EAD67080F001086D1C8A
:10513000B8F1000F03D14FF6FF708542C3D34FF68D
:10514000FF70854202D31B2420468BE706F0804087
:10515000061E32D002201C4908702EE01CE01D48BB
:105160001849086001204860402088600020C8601D
:105170004FF4806008610846FFF7EEFBFDF7FAFB8D
:1051800004460CB120466DE711484669012080EACB
:10519000D67080F001086D1CB8F1000F03D14FF6F6
:1051A000FF708542DBD34FF6FF70854202D31B248C
:1051B000204657E7032004490870204652E70000C4
:1051C000B82C0020D02C0020C80100200000108046
:1051D000008001400080FF8010B54948406B00F41A
:1051E000807070B347480078012814D100204649E8
:1051F00008600C204860402088600020C8604FF4A0
:10520000806008610846FFF7A7FB0C20FDF758FBFC
:105210003E49087002E000203C4908703848806B25
:1052200040F48070364988630846C06B4CF23A31CE
:1052300088433349C86301203549087033480078F2
:1052400010BDFFE70220FFF751FB68B10220FFF716
:1052500007FB2B48C06B4CF23A3188432849C8639E
:1052600002202A490870EBE70820FFF73FFB68B1EE
:105270000820FFF7F5FA2248C06B4CF23A31884318
:105280001F49C863042021490870D9E72020FFF78F
:105290002DFB68B12020FFF7E3FA1948C06B4CF2F0
:1052A0003A3188431649C863062018490870C7E791
:1052B0001020FFF71BFB68B11020FFF7D1FA104850
:1052C000C06B4CF23A3188430D49C86305200F4941
:1052D0000870B5E74FF40070FFF708FB70B14FF4AA
:1052E0000070FFF7BDFA0648C06B4CF23A318843B4
:1052F0000349C863072005490870A1E700209FE71C
:1053000000800140D1010020D02C0020D2010020DB
:10531000D30100202DE9F84F8146174698460A9C94
:105320004FF0000AD3464D464FF0FF36B9F1000F5B
:1053300002D12620BDE8F88F00208249C862824849
:105340000078022805D10402780A40EAC8574FEADB
:10535000682800207D4988604860401E0860012060
:1053600048610020C86008610846FFF795FA754853
:10537000406900F0007008B10E20DBE7002C21DD51
:10538000B4F5006F1EDC601E2040D8B9204603F043
:10539000E1FD00906E48046010206D494860402097
:1053A00088600020C8604FF4806008610846FFF7FD
:1053B000D3FA1020FDF784FA8246BAF1000F03D029
:1053C0005046B7E72620B5E7009800015F4988609E
:1053D000084644604FF0FF30086001204861022019
:1053E000C860002008610846FFF756FA5848076071
:1053F000112057494860402088600020C8604FF461
:10540000806008610846FFF7A7FA1120FDF758FAF7
:105410008246BAF1000F01D050468BE74D48007824
:1054200000285AD1FEF78CFA18E04FF40040FFF73D
:105430005DFA78B14FF0000B06E04248803000681A
:1054400045F82B000BF1010BBBF1080FF5D320350C
:10545000414E03E00EB904206CE7761E3948406BDC
:1054600040F22A6108400028DFD00820FFF73EFA0A
:1054700020B10820FFF7F4F904205BE70220FFF7D2
:1054800035FA20B10220FFF7EBF9022052E7202085
:10549000FFF72CFA20B12020FFF7E2F9062049E7B8
:1054A0004FF40070FFF722FA28B14FF40070FFF7B5
:1054B000D7F907203EE703E0FFF748FA28602D1DE3
:1054C0004FF40010FFF712FA0028F5D1FEF73AFA70
:1054D00040F2FF50FFF7C4F931E01E480078012880
:1054E0002DD1002221464846FFF760FA00201B49D3
:1054F00008701B4908701B4908701248C06B40F2C5
:105500002A3108430F49C8630120FFF7BFF900E0C3
:10551000761E1548006800F4005038B9114800782C
:1055200020B90E48007808B9002EF1D10EB9042038
:1055300000E70A48007810B1084890F800A05046EB
:10554000F8E6000000800140C8010020E42C0020A3
:10555000D02C0020D0010020FFFF7F00D2010020CE
:10556000D1010020D3010020000402402DE9FE4FAC
:1055700083460C46914600200290002625462C4684
:10558000700240EAD5566D020BF00300F0B14FF007
:10559000000A18E04FF4007000904FEA4A204719C3
:1055A00046EBE0733A461648FFF7B4FE02904FF41C
:1055B000007213495846FBF7D5F80BF5007B0AF14A
:1055C000010000F0FF0ACA45E4DB16E0B9F1010F63
:1055D00009D14FF400702A46334600905846FFF731
:1055E00099FE029009E04FF400702A463346CDE957
:1055F0000009584600F006F802900298BDE8FE8FB8
:10560000782D00202DE9FF5F17469846DDE90E460C
:105610004FF00009CA464FF0FF35A94900980860CD
:105620000020A849C862A8480078022805D10402D1
:10563000780A40EAC8574FEA68280020A3498860E2
:105640004860401E0860012048610020C860086171
:105650000846FFF721F99B48406900F0007018B137
:105660000E2004B0BDE8F09F002C21DDB4F5006FE2
:105670001EDC601E2040D8B9204603F06BFC834638
:1056800093480460102092494860402088600020C0
:10569000C8604FF4806008610846FFF75DF910208C
:1056A000FDF70EF98146B9F1000F03D04846D8E75F
:1056B0002620D6E7012E70D906FB04F0B0F1007F5A
:1056C00001D32620CDE74FEA0B108049886006FB06
:1056D00004F048604FF0FF3008600120486102206C
:1056E000C860002008610846FFF7D6F878480760D0
:1056F000122077494860402088600020C8604FF43D
:10570000806008610846FFF727F91220FDF7D8F8F6
:105710008146B9F1000F01D04846A2E76D480078F4
:1057200000287DD1FEF70CF91EE04FF40040FFF792
:10573000DDF8A8B14FF0000A08E062488030006848
:105740005F49096841F82A000AF1010ABAF1080F15
:10575000F3D35B4800682030594908605E4D03E090
:105760000DB904207DE76D1E5648406B40F22A318A
:1057700008400028D9D00820FFF7B8F820B1082049
:10578000FFF76EF804206CE70220FFF7AFF828B1AE
:105790000220FFF765F8022063E78EE02020FFF784
:1057A000A5F820B12020FFF75BF8062059E74FF459
:1057B0000070FFF79BF828B14FF40070FFF750F826
:1057C00007204EE709E0FFF7C1F83D490968086086
:1057D0003B480068001D3A4908604FF40010FFF78D
:1057E00085F80028EFD14FF48070FFF77FF820B3E1
:1057F0003548007838B134480078012803D0324861
:105800000078022819D10020314908600C20486036
:10581000402088600020C8604FF48060086100E08C
:1058200012E00846FFF798F80C20FDF749F881468A
:10583000B9F1000F01D0484613E7FEF783F840F2B4
:10584000FF50FFF70DF838E022480078012834D1E6
:1058500006FB04F100220098FFF7A8F800201F497A
:10586000087001201E49087000201E490870154864
:10587000C06B40F22A3108431249C8630846C06A27
:1058800040F00800C86200E06D1E1748006800F490
:10589000005008B9002DF7D10DB90420E1E600BF92
:1058A0001048007818B90D4800780028F8D00B4847
:1058B000007810B1094890F800904846D1E6000001
:1058C000D401002000800140C8010020E42C002009
:1058D000D02C0020D0010020FFFF7F00D20100204B
:1058E000D1010020D30100200004024010B504467D
:1058F000094804600720084948604020886000206B
:10590000C8604FF4806008610846FFF725F807205B
:10591000FCF7D6FF10BD0000D02C0020014600206F
:10592000012900D011B9024B197000E02620704700
:10593000D00100202DE9FF5F86B017469846149DE0
:1059400000260020059004900024814603908246A2
:1059500002900195DDF818B0DDF818B0BBF1000F2A
:1059600003D126200AB0BDE8F09F0020C449C862D8
:10597000C44988604860401E0860012048610020DA
:10598000C86008610846FEF787FFBD48406900F01F
:10599000007008B10E20E5E7BB480078022805D169
:1059A0000502780A40EAC8574FEA6828002D1FDD33
:1059B000B5F5006F1CDC681E2840C8B9284603F006
:1059C000C9FA0590B14805601020B04948604020F0
:1059D00088600020C8604FF4806008610846FEF7C8
:1059E000BBFF1020FCF76CFF06461EB13046B9E73E
:1059F0002620B7E7A64800880004A44908600D20C7
:105A00004860402088600020C8604FF480600861D2
:105A10000846FEF7A1FF0D20FCF752FF06460EB127
:105A200030469FE79648406903904FF0FF341BE0F3
:105A3000641E974800880004944908600D2048605F
:105A4000402088600020C8604FF4806008610846EC
:105A5000FEF782FF0D20FCF733FF06460EB13046FD
:105A600080E7874840690390039800F4807008B984
:105A7000002CDDD10CB9292074E784480760182078
:105A800082494860402088600020C8604FF48060F0
:105A900008610846FEF760FF1820FCF711FF064674
:105AA0000EB130465EE700207A4908700598000183
:105AB00074498860084645604FF0FF300860012057
:105AC00048610020C86008610846FEF7E5FE4FF017
:105AD000FF347148007800287BD1FDF731FF43E0A7
